:100000000C9434000C9451000C9451000C94510049
:100010000C9451000C9451000C9451000C9451001C
:100020000C9451000C9451000C9451000C9451000C
:100030000C9451000C9451000C9451000C945100FC
:100040000C9451000C9451000C94D5000C94510068
:100050000C9451000C94FD000C9451000C94510030
:100060000C9451000C94510011241FBECFEFD8E026
:10007000DEBFCDBF11E0A0E0B1E0EEE3F4E002C0EE
:1000800005900D92AE32B107D9F721E0AEE2B1E0B2
:1000900001C01D92AF32B207E1F70E94BB000C9481
:1000A0001D020C94000010927A0010927B00609365
:1000B0007E00811105C0ECE7F0E090819F73908392
:1000C000813011F0833040F0ECE7F0E090819F77D1
:1000D0009083908190649083823029F4ECE7F0E083
:1000E0008081806C8083ECE7F0E080818F7D80836D
:1000F000EAE7F0E08081876880830895863030F4F5
:10010000ECE7F0E09081907F982B9083863031F47B
:10011000ECE7F0E09081907F98609083873031F435
:10012000ECE7F0E09081907F9E609083883028F02B
:10013000ECE7F0E080818F6080830895882331F0C0
:10014000EAE7F0E08081886080830895EAE7F0E0E4
:100150008081877F80830895EAE7F0E08081806472
:1001600080830895209178008091790090E0982F05
:100170008827822B089520E032E14AE750E060E8CA
:1001800075E280E090E00E94420161E081E00E941F
:10019000530080912E010E947E0081E00E949E000B
:1001A00081E00E9473017894FFCF1F920F920FB6E7
:1001B0000F9211242F933F934F935F936F937F93ED
:1001C0008F939F93AF93BF93EF93FF930E94700120
:1001D000833411F40E94AC00FF91EF91BF91AF9175
:1001E0009F918F917F916F915F914F913F912F914F
:1001F0000F900FBE0F901F9018951F920F920FB681
:100200000F9211242F933F934F935F936F937F939C
:100210008F939F93AF93BF93EF93FF9380912E01A2
:10022000811105C080E091E00E94810104C085E158
:1002300091E00E9481010E94B2000E9492018AE234
:1002400091E00E94810180912E01811104C081E022
:1002500080932E0102C010922E0180912E010E94E7
:100260007E00FF91EF91BF91AF919F918F917F9110
:100270006F915F914F913F912F910F900FBE0F9013
:100280001F901895CF92DF92EF92FF926B017C0145
:10029000CA01B901689413F8969587957795679583
:1002A0001694D1F7A70196010E94EC012150310963
:1002B0003093C5002093C4001092C00088E1809361
:1002C000C10086E08093C200FF90EF90DF90CF9056
:1002D00008958091C000807208958093C6000895AB
:1002E0008091C6000895882331F0E1ECF0E0808130
:1002F000806880830895E1ECF0E080818F778083CF
:100300000895CF93DF93EC0107C00E946901882311
:10031000E1F389910E946D0188818111F6CFDF910F
:10032000CF9108951F93CF93DF9300D000D01F92F9
:10033000CDB7DEB7FC0110E001C0182F9F01ADEC76
:10034000BCEC0E940E02969587959695879596959A
:1003500087959C01220F331F880F991F880F991FC3
:10036000880F991F820F931F9F01281B390B40E3B1
:10037000420F9F010E940E02FC01F695E795F6954B
:10038000E795F695E795A1E0B0E0AC0FBD1FA10F92
:10039000B11D17FDBA954C9381E0810F309769F636
:1003A00010C00E9469018823E1F3E1E0F0E0EC0F66
:1003B000FD1FE10FF11D17FDFA9580810E946D016F
:1003C0001150112374F70F900F900F900F900F9012
:1003D000DF91CF911F910895A1E21A2EAA1BBB1B9A
:1003E000FD010DC0AA1FBB1FEE1FFF1FA217B30701
:1003F000E407F50720F0A21BB30BE40BF50B661F17
:10040000771F881F991F1A9469F7609570958095DA
:1004100090959B01AC01BD01CF010895A29FB00151
:10042000B39FC001A39F700D811D1124911DB29F28
:0E043000700D811D1124911D0895F894FFCFC9
:10043E0043616E616C3A20414443302C2056616C0E
:10044E006F723A200043616E616C3A204144433131
:0E045E002C2056616C6F723A20000D0A0000CF
:00000001FF
