:100000000C9434000C9449000C9449000C94490061
:100010000C9449000C9449000C9449000C9449003C
:100020000C9449000C9449000C9449000C9449002C
:100030000C9449000C9449000C9449000C9449001C
:100040000C9449000C9449000C9449000C9449000C
:100050000C9449000C94D3000C9449000C94490072
:100060000C9449000C94490011241FBECFEFD8E036
:10007000DEBFCDBF11E0A0E0B1E0E8EAF3E002C0EE
:1000800005900D92AC30B107D9F70E94B3000C94E3
:10009000D2010C94000010927A0010927B006093C1
:1000A0007E00811105C0ECE7F0E090819F739083A2
:1000B000813011F0833040F0ECE7F0E090819F77E1
:1000C0009083908190649083823029F4ECE7F0E093
:1000D0008081806C8083ECE7F0E080818F7D80837D
:1000E000EAE7F0E08081876880830895863030F405
:1000F000ECE7F0E09081907F982B9083863031F48C
:10010000ECE7F0E09081907F98609083873031F445
:10011000ECE7F0E09081907F9E609083883028F03B
:10012000ECE7F0E080818F6080830895882331F0D0
:10013000EAE7F0E08081886080830895EAE7F0E0F4
:100140008081877F80830895EAE7F0E08081806482
:1001500080830895209178008091790090E0982F15
:100160008827822B089520E032E14AE750E060E8DA
:1001700075E280E090E00E94010161E081E00E9470
:100180004B0080E00E94760081E00E949600789407
:100190000E942F018823E1F30E9433018334C1F7C9
:1001A0000E94A400F5CF1F920F920FB60F92112458
:1001B0002F933F934F935F936F937F938F939F936F
:1001C000AF93BF93EF93FF9380E091E00E943601DD
:1001D0000E94AA000E94470188E091E00E94360137
:1001E000FF91EF91BF91AF919F918F917F916F910F
:1001F0005F914F913F912F910F900FBE0F901F90E5
:100200001895CF92DF92EF92FF926B017C01CA01A9
:10021000B901689413F89695879577956795169424
:10022000D1F7A70196010E94A10121503109309315
:10023000C5002093C4001092C00088E18093C100E3
:1002400086E08093C200FF90EF90DF90CF900895FA
:100250008091C000807208958093C60008958091B7
:10026000C000807808958091C6000895CF93DF93F1
:10027000EC0107C00E9428018823E1F389910E94C4
:100280002C0188818111F6CFDF91CF9108951F93C2
:10029000CF93DF9300D000D01F92CDB7DEB7FC0123
:1002A00010E001C0182F9F01ADECBCEC0E94C3010F
:1002B0009695879596958795969587959C01220F9B
:1002C000331F880F991F880F991F880F991F820F5E
:1002D000931F9F01281B390B40E3420F9F010E948F
:1002E000C301FC01F695E795F695E795F695E79538
:1002F000A1E0B0E0AC0FBD1FA10FB11D17FDBA9575
:100300004C9381E0810F309769F610C00E9428015C
:100310008823E1F3E1E0F0E0EC0FFD1FE10FF11DB8
:1003200017FDFA9580810E942C011150112374F75A
:100330000F900F900F900F900F90DF91CF911F9122
:100340000895A1E21A2EAA1BBB1BFD010DC0AA1F16
:10035000BB1FEE1FFF1FA217B307E407F50720F02E
:10036000A21BB30BE40BF50B661F771F881F991FA9
:100370001A9469F760957095809590959B01AC01F2
:10038000BD01CF010895A29FB001B39FC001A39FFB
:10039000700D811D1124911DB29F700D811D1124BE
:0803A000911D0895F894FFCFB0
:0C03A80056616C6F723A20000D0A0000D4
:00000001FF
